{
  "_format": "hh-sol-artifact-1",
  "contractName": "WishingPortal",
  "sourceName": "contracts/WishingPortal.sol",
  "abi": [
    {
      "inputs": [],
      "stateMutability": "payable",
      "type": "constructor"
    },
    {
      "inputs": [],
      "name": "NotEnoughEther",
      "type": "error"
    },
    {
      "anonymous": false,
      "inputs": [
        {
          "indexed": true,
          "internalType": "address",
          "name": "from",
          "type": "address"
        },
        {
          "indexed": false,
          "internalType": "uint256",
          "name": "timestamp",
          "type": "uint256"
        },
        {
          "indexed": false,
          "internalType": "string",
          "name": "wish",
          "type": "string"
        },
        {
          "indexed": false,
          "internalType": "uint256",
          "name": "amount",
          "type": "uint256"
        }
      ],
      "name": "NewWinner",
      "type": "event"
    },
    {
      "anonymous": false,
      "inputs": [
        {
          "indexed": true,
          "internalType": "address",
          "name": "from",
          "type": "address"
        },
        {
          "indexed": false,
          "internalType": "uint256",
          "name": "timestamp",
          "type": "uint256"
        },
        {
          "indexed": false,
          "internalType": "string",
          "name": "wish",
          "type": "string"
        }
      ],
      "name": "NewWish",
      "type": "event"
    },
    {
      "inputs": [],
      "name": "getBalance",
      "outputs": [
        {
          "internalType": "uint256",
          "name": "",
          "type": "uint256"
        }
      ],
      "stateMutability": "view",
      "type": "function"
    },
    {
      "inputs": [],
      "name": "getWishList",
      "outputs": [
        {
          "components": [
            {
              "internalType": "address",
              "name": "wisher",
              "type": "address"
            },
            {
              "internalType": "string",
              "name": "wish",
              "type": "string"
            },
            {
              "internalType": "uint256",
              "name": "timestamp",
              "type": "uint256"
            }
          ],
          "internalType": "struct WishingPortal.Wish[]",
          "name": "",
          "type": "tuple[]"
        }
      ],
      "stateMutability": "view",
      "type": "function"
    },
    {
      "inputs": [
        {
          "internalType": "string",
          "name": "_message",
          "type": "string"
        }
      ],
      "name": "newWish",
      "outputs": [],
      "stateMutability": "payable",
      "type": "function"
    }
  ],
  "bytecode": "0x6080604052606444426200001491906200002c565b62000020919062000093565b60018190555062000129565b6000620000398262000089565b9150620000468362000089565b9250827fffffffffffffffffffffffffffffffffffffffffffffffffffffffffffffffff038211156200007e576200007d620000cb565b5b828201905092915050565b6000819050919050565b6000620000a08262000089565b9150620000ad8362000089565b925082620000c057620000bf620000fa565b5b828206905092915050565b7f4e487b7100000000000000000000000000000000000000000000000000000000600052601160045260246000fd5b7f4e487b7100000000000000000000000000000000000000000000000000000000600052601260045260246000fd5b610d8980620001396000396000f3fe6080604052600436106100345760003560e01c806312065fe01461003957806326e7866914610064578063ae81a1a61461008f575b600080fd5b34801561004557600080fd5b5061004e6100ab565b60405161005b9190610922565b60405180910390f35b34801561007057600080fd5b506100796100b3565b60405161008691906108c0565b60405180910390f35b6100a960048036038101906100a49190610689565b610204565b005b600047905090565b60606003805480602002602001604051908101604052809291908181526020016000905b828210156101fb57838290600052602060002090600302016040518060600160405290816000820160009054906101000a900473ffffffffffffffffffffffffffffffffffffffff1673ffffffffffffffffffffffffffffffffffffffff1673ffffffffffffffffffffffffffffffffffffffff16815260200160018201805461016090610b77565b80601f016020809104026020016040519081016040528092919081815260200182805461018c90610b77565b80156101d95780601f106101ae576101008083540402835291602001916101d9565b820191906000526020600020905b8154815290600101906020018083116101bc57829003601f168201915b50505050508152602001600282015481525050815260200190600101906100d7565b50505050905090565b655af3107a400080341015610245576040517f8a0d377900000000000000000000000000000000000000000000000000000000815260040160405180910390fd5b42601e600260003373ffffffffffffffffffffffffffffffffffffffff1673ffffffffffffffffffffffffffffffffffffffff168152602001908152602001600020546102929190610a72565b106102d2576040517f08c379a00000000000000000000000000000000000000000000000000000000081526004016102c990610902565b60405180910390fd5b42600260003373ffffffffffffffffffffffffffffffffffffffff1673ffffffffffffffffffffffffffffffffffffffff16815260200190815260200160002081905550600360405180606001604052803373ffffffffffffffffffffffffffffffffffffffff16815260200184815260200142815250908060018154018082558091505060019003906000526020600020906003020160009091909190915060008201518160000160006101000a81548173ffffffffffffffffffffffffffffffffffffffff021916908373ffffffffffffffffffffffffffffffffffffffff16021790555060208201518160010190805190602001906103d592919061057e565b50604082015181600201555050606460015442446103f39190610a72565b6103fd9190610a72565b6104079190610bda565b6001819055506032600154101561052a5760006005476104279190610ac8565b905060003373ffffffffffffffffffffffffffffffffffffffff168260405161044f906108ab565b60006040518083038185875af1925050503d806000811461048c576040519150601f19603f3d011682016040523d82523d6000602084013e610491565b606091505b50509050806104d5576040517f08c379a00000000000000000000000000000000000000000000000000000000081526004016104cc906108e2565b60405180910390fd5b3373ffffffffffffffffffffffffffffffffffffffff167f7b8f39737049e5140e140676c60b5e43ed91c666e208b6a081227f4e2ed978f042868560405161051f9392919061096d565b60405180910390a250505b3373ffffffffffffffffffffffffffffffffffffffff167f8d35e13c755675f3ca709e944cd51ea68394c3e349a50cafeeaef6d638b0b426428460405161057292919061093d565b60405180910390a25050565b82805461058a90610b77565b90600052602060002090601f0160209004810192826105ac57600085556105f3565b82601f106105c557805160ff19168380011785556105f3565b828001600101855582156105f3579182015b828111156105f25782518255916020019190600101906105d7565b5b5090506106009190610604565b5090565b5b8082111561061d576000816000905550600101610605565b5090565b600061063461062f846109d0565b6109ab565b90508281526020810184848401111561064c57600080fd5b610657848285610b35565b509392505050565b600082601f83011261067057600080fd5b8135610680848260208601610621565b91505092915050565b60006020828403121561069b57600080fd5b600082013567ffffffffffffffff8111156106b557600080fd5b6106c18482850161065f565b91505092915050565b60006106d6838361083d565b905092915050565b6106e781610af9565b82525050565b60006106f882610a11565b6107028185610a34565b93508360208202850161071485610a01565b8060005b85811015610750578484038952815161073185826106ca565b945061073c83610a27565b925060208a01995050600181019050610718565b50829750879550505050505092915050565b600061076d82610a1c565b6107778185610a50565b9350610787818560208601610b44565b61079081610cc7565b840191505092915050565b60006107a682610a1c565b6107b08185610a61565b93506107c0818560208601610b44565b6107c981610cc7565b840191505092915050565b60006107e1602783610a61565b91506107ec82610cd8565b604082019050919050565b6000610804600083610a45565b915061080f82610d27565b600082019050919050565b6000610827600883610a61565b915061083282610d2a565b602082019050919050565b600060608301600083015161085560008601826106de565b506020830151848203602086015261086d8282610762565b9150506040830151610882604086018261088d565b508091505092915050565b61089681610b2b565b82525050565b6108a581610b2b565b82525050565b60006108b6826107f7565b9150819050919050565b600060208201905081810360008301526108da81846106ed565b905092915050565b600060208201905081810360008301526108fb816107d4565b9050919050565b6000602082019050818103600083015261091b8161081a565b9050919050565b6000602082019050610937600083018461089c565b92915050565b6000604082019050610952600083018561089c565b8181036020830152610964818461079b565b90509392505050565b6000606082019050610982600083018661089c565b8181036020830152610994818561079b565b90506109a3604083018461089c565b949350505050565b60006109b56109c6565b90506109c18282610ba9565b919050565b6000604051905090565b600067ffffffffffffffff8211156109eb576109ea610c98565b5b6109f482610cc7565b9050602081019050919050565b6000819050602082019050919050565b600081519050919050565b600081519050919050565b6000602082019050919050565b600082825260208201905092915050565b600081905092915050565b600082825260208201905092915050565b600082825260208201905092915050565b6000610a7d82610b2b565b9150610a8883610b2b565b9250827fffffffffffffffffffffffffffffffffffffffffffffffffffffffffffffffff03821115610abd57610abc610c0b565b5b828201905092915050565b6000610ad382610b2b565b9150610ade83610b2b565b925082610aee57610aed610c3a565b5b828204905092915050565b6000610b0482610b0b565b9050919050565b600073ffffffffffffffffffffffffffffffffffffffff82169050919050565b6000819050919050565b82818337600083830152505050565b60005b83811015610b62578082015181840152602081019050610b47565b83811115610b71576000848401525b50505050565b60006002820490506001821680610b8f57607f821691505b60208210811415610ba357610ba2610c69565b5b50919050565b610bb282610cc7565b810181811067ffffffffffffffff82111715610bd157610bd0610c98565b5b80604052505050565b6000610be582610b2b565b9150610bf083610b2b565b925082610c0057610bff610c3a565b5b828206905092915050565b7f4e487b7100000000000000000000000000000000000000000000000000000000600052601160045260246000fd5b7f4e487b7100000000000000000000000000000000000000000000000000000000600052601260045260246000fd5b7f4e487b7100000000000000000000000000000000000000000000000000000000600052602260045260246000fd5b7f4e487b7100000000000000000000000000000000000000000000000000000000600052604160045260246000fd5b6000601f19601f8301169050919050565b7f4661696c656420746f207769746864726177206d6f6e65792066726f6d20636f60008201527f6e74726163742e00000000000000000000000000000000000000000000000000602082015250565b50565b7f576169742031356d00000000000000000000000000000000000000000000000060008201525056fea264697066735822122067bd0f22f90593a7370d9e3ed2eb5397e09d953e3c15f623c1f9e929ab846bf064736f6c63430008040033",
  "linkReferences": {},
  "deployedLinkReferences": {}
}